{
  "_format": "hh-sol-artifact-1",
  "contractName": "Raffle",
  "sourceName": "contracts/Raffle.sol",
  "abi": [
    {
      "inputs": [
        {
          "internalType": "address",
          "name": "vrfCoordinatorV2",
          "type": "address"
        },
        {
          "internalType": "uint256",
          "name": "entranceFee",
          "type": "uint256"
        },
        {
          "internalType": "bytes32",
          "name": "gasLane",
          "type": "bytes32"
        },
        {
          "internalType": "uint64",
          "name": "subscriptionId",
          "type": "uint64"
        },
        {
          "internalType": "uint32",
          "name": "callbackGasLimit",
          "type": "uint32"
        },
        {
          "internalType": "uint256",
          "name": "interval",
          "type": "uint256"
        }
      ],
      "stateMutability": "nonpayable",
      "type": "constructor"
    },
    {
      "inputs": [
        {
          "internalType": "address",
          "name": "have",
          "type": "address"
        },
        {
          "internalType": "address",
          "name": "want",
          "type": "address"
        }
      ],
      "name": "OnlyCoordinatorCanFulfill",
      "type": "error"
    },
    {
      "inputs": [],
      "name": "Raffle__NotEnoughETHEntered",
      "type": "error"
    },
    {
      "inputs": [],
      "name": "Raffle__NotOpen",
      "type": "error"
    },
    {
      "inputs": [],
      "name": "Raffle__TransferFailed",
      "type": "error"
    },
    {
      "inputs": [
        {
          "internalType": "uint256",
          "name": "currentBalance",
          "type": "uint256"
        },
        {
          "internalType": "uint256",
          "name": "numPlayers",
          "type": "uint256"
        },
        {
          "internalType": "uint256",
          "name": "raffleState",
          "type": "uint256"
        }
      ],
      "name": "Raffle__UpkeepNotNeeded",
      "type": "error"
    },
    {
      "anonymous": false,
      "inputs": [
        {
          "indexed": true,
          "internalType": "address",
          "name": "player",
          "type": "address"
        }
      ],
      "name": "RaffleEnter",
      "type": "event"
    },
    {
      "anonymous": false,
      "inputs": [
        {
          "indexed": true,
          "internalType": "uint256",
          "name": "requestId",
          "type": "uint256"
        }
      ],
      "name": "RequestedRaffleWinner",
      "type": "event"
    },
    {
      "anonymous": false,
      "inputs": [
        {
          "indexed": true,
          "internalType": "address",
          "name": "player",
          "type": "address"
        }
      ],
      "name": "WinnerPicked",
      "type": "event"
    },
    {
      "inputs": [
        {
          "internalType": "bytes",
          "name": "",
          "type": "bytes"
        }
      ],
      "name": "checkUpkeep",
      "outputs": [
        {
          "internalType": "bool",
          "name": "upkeepNeeded",
          "type": "bool"
        },
        {
          "internalType": "bytes",
          "name": "",
          "type": "bytes"
        }
      ],
      "stateMutability": "nonpayable",
      "type": "function"
    },
    {
      "inputs": [],
      "name": "enterRaffle",
      "outputs": [],
      "stateMutability": "payable",
      "type": "function"
    },
    {
      "inputs": [],
      "name": "getEntranceFee",
      "outputs": [
        {
          "internalType": "uint256",
          "name": "",
          "type": "uint256"
        }
      ],
      "stateMutability": "view",
      "type": "function"
    },
    {
      "inputs": [
        {
          "internalType": "uint256",
          "name": "index",
          "type": "uint256"
        }
      ],
      "name": "getPlayer",
      "outputs": [
        {
          "internalType": "address",
          "name": "",
          "type": "address"
        }
      ],
      "stateMutability": "view",
      "type": "function"
    },
    {
      "inputs": [],
      "name": "getWinner",
      "outputs": [
        {
          "internalType": "address",
          "name": "",
          "type": "address"
        }
      ],
      "stateMutability": "view",
      "type": "function"
    },
    {
      "inputs": [
        {
          "internalType": "bytes",
          "name": "",
          "type": "bytes"
        }
      ],
      "name": "performUpkeep",
      "outputs": [],
      "stateMutability": "nonpayable",
      "type": "function"
    },
    {
      "inputs": [
        {
          "internalType": "uint256",
          "name": "requestId",
          "type": "uint256"
        },
        {
          "internalType": "uint256[]",
          "name": "randomWords",
          "type": "uint256[]"
        }
      ],
      "name": "rawFulfillRandomWords",
      "outputs": [],
      "stateMutability": "nonpayable",
      "type": "function"
    }
  ],
  "bytecode": "0x6101606040523480156200001257600080fd5b506040516200162638038062001626833981810160405281019062000038919062000294565b858073ffffffffffffffffffffffffffffffffffffffff1660808173ffffffffffffffffffffffffffffffffffffffff1681525050508460a081815250508573ffffffffffffffffffffffffffffffffffffffff1660c08173ffffffffffffffffffffffffffffffffffffffff16815250508360e081815250508267ffffffffffffffff166101008167ffffffffffffffff16815250508163ffffffff166101208163ffffffff16815250506000600160146101000a81548160ff021916908360018111156200010d576200010c62000330565b5b0217905550426002819055508061014081815250505050505050506200035f565b600080fd5b600073ffffffffffffffffffffffffffffffffffffffff82169050919050565b6000620001608262000133565b9050919050565b620001728162000153565b81146200017e57600080fd5b50565b600081519050620001928162000167565b92915050565b6000819050919050565b620001ad8162000198565b8114620001b957600080fd5b50565b600081519050620001cd81620001a2565b92915050565b6000819050919050565b620001e881620001d3565b8114620001f457600080fd5b50565b6000815190506200020881620001dd565b92915050565b600067ffffffffffffffff82169050919050565b6200022d816200020e565b81146200023957600080fd5b50565b6000815190506200024d8162000222565b92915050565b600063ffffffff82169050919050565b6200026e8162000253565b81146200027a57600080fd5b50565b6000815190506200028e8162000263565b92915050565b60008060008060008060c08789031215620002b457620002b36200012e565b5b6000620002c489828a0162000181565b9650506020620002d789828a01620001bc565b9550506040620002ea89828a01620001f7565b9450506060620002fd89828a016200023c565b93505060806200031089828a016200027d565b92505060a06200032389828a01620001bc565b9150509295509295509295565b7f4e487b7100000000000000000000000000000000000000000000000000000000600052602160045260246000fd5b60805160a05160c05160e05161010051610120516101405161125e620003c8600039600061063b015260006105300152600061050d015260006104ec015260006104b00152600081816101a6015261028c0152600081816101cc0152610220015261125e6000f3fe6080604052600436106100705760003560e01c80634585e33b1161004e5780634585e33b146100d35780636e04ff0d146100fc5780638e7ea5b21461013a578063e55ae4e81461016557610070565b806309bc33a7146100755780631fe543e3146100a05780632cfcc539146100c9575b600080fd5b34801561008157600080fd5b5061008a6101a2565b6040516100979190610a07565b60405180910390f35b3480156100ac57600080fd5b506100c760048036038101906100c29190610bbb565b6101ca565b005b6100d161028a565b005b3480156100df57600080fd5b506100fa60048036038101906100f59190610c72565b6103f9565b005b34801561010857600080fd5b50610123600480360381019061011e9190610d74565b6105f8565b604051610131929190610e60565b60405180910390f35b34801561014657600080fd5b5061014f6106a5565b60405161015c9190610ed1565b60405180910390f35b34801561017157600080fd5b5061018c60048036038101906101879190610eec565b6106cf565b6040516101999190610ed1565b60405180910390f35b60007f0000000000000000000000000000000000000000000000000000000000000000905090565b7f000000000000000000000000000000000000000000000000000000000000000073ffffffffffffffffffffffffffffffffffffffff163373ffffffffffffffffffffffffffffffffffffffff161461027c57337f00000000000000000000000000000000000000000000000000000000000000006040517f1cf993f4000000000000000000000000000000000000000000000000000000008152600401610273929190610f19565b60405180910390fd5b6102868282610716565b5050565b7f00000000000000000000000000000000000000000000000000000000000000003410156102e4576040517fbd4e069500000000000000000000000000000000000000000000000000000000815260040160405180910390fd5b600060018111156102f8576102f7610f42565b5b600160149054906101000a900460ff16600181111561031a57610319610f42565b5b14610351576040517f1425571c00000000000000000000000000000000000000000000000000000000815260040160405180910390fd5b6000339080600181540180825580915050600190039060005260206000200160009091909190916101000a81548173ffffffffffffffffffffffffffffffffffffffff021916908373ffffffffffffffffffffffffffffffffffffffff1602179055503373ffffffffffffffffffffffffffffffffffffffff167f0805e1d667bddb8a95f0f09880cf94f403fb596ce79928d9f29b74203ba284d460405160405180910390a2565b6000610413604051806020016040528060008152506105f8565b509050806104825747600080549050600160149054906101000a900460ff16600181111561044457610443610f42565b5b6040517f584327aa00000000000000000000000000000000000000000000000000000000815260040161047993929190610f71565b60405180910390fd5b60018060146101000a81548160ff021916908360018111156104a7576104a6610f42565b5b021790555060007f000000000000000000000000000000000000000000000000000000000000000073ffffffffffffffffffffffffffffffffffffffff16635d3b1d307f00000000000000000000000000000000000000000000000000000000000000007f000000000000000000000000000000000000000000000000000000000000000060037f000000000000000000000000000000000000000000000000000000000000000060016040518663ffffffff1660e01b815260040161057195949392919061105b565b602060405180830381600087803b15801561058b57600080fd5b505af115801561059f573d6000803e3d6000fd5b505050506040513d601f19601f820116820180604052508101906105c391906110c3565b9050807fcd6e45c8998311cab7e9d4385596cac867e20a0587194b954fa3a731c93ce78b60405160405180910390a250505050565b600060606000600160149054906101000a900460ff1660018111156106205761061f610f42565b5b6000600181111561063457610633610f42565b5b14905060007f000000000000000000000000000000000000000000000000000000000000000060025442610668919061111f565b119050600080600080549050119050600080471190508380156106885750825b80156106915750815b801561069a5750805b955050505050915091565b6000600160009054906101000a900473ffffffffffffffffffffffffffffffffffffffff16905090565b60008082815481106106e4576106e3611153565b5b9060005260206000200160009054906101000a900473ffffffffffffffffffffffffffffffffffffffff169050919050565b600080805490508260008151811061073157610730611153565b5b602002602001015161074391906111b1565b9050600080828154811061075a57610759611153565b5b9060005260206000200160009054906101000a900473ffffffffffffffffffffffffffffffffffffffff16905080600160006101000a81548173ffffffffffffffffffffffffffffffffffffffff021916908373ffffffffffffffffffffffffffffffffffffffff1602179055506000600160146101000a81548160ff021916908360018111156107ee576107ed610f42565b5b0217905550600067ffffffffffffffff81111561080e5761080d610a78565b5b60405190808252806020026020018201604052801561083c5781602001602082028036833780820191505090505b5060009080519060200190610852929190610947565b504260028190555060008173ffffffffffffffffffffffffffffffffffffffff164760405161088090611213565b60006040518083038185875af1925050503d80600081146108bd576040519150601f19603f3d011682016040523d82523d6000602084013e6108c2565b606091505b50509050806108fd576040517fa1d04b3900000000000000000000000000000000000000000000000000000000815260040160405180910390fd5b8173ffffffffffffffffffffffffffffffffffffffff167f5b690ec4a06fe979403046eaeea5b3ce38524683c3001f662c8b5a829632f7df60405160405180910390a25050505050565b8280548282559060005260206000209081019282156109c0579160200282015b828111156109bf5782518260006101000a81548173ffffffffffffffffffffffffffffffffffffffff021916908373ffffffffffffffffffffffffffffffffffffffff16021790555091602001919060010190610967565b5b5090506109cd91906109d1565b5090565b5b808211156109ea5760008160009055506001016109d2565b5090565b6000819050919050565b610a01816109ee565b82525050565b6000602082019050610a1c60008301846109f8565b92915050565b6000604051905090565b600080fd5b600080fd5b610a3f816109ee565b8114610a4a57600080fd5b50565b600081359050610a5c81610a36565b92915050565b600080fd5b6000601f19601f8301169050919050565b7f4e487b7100000000000000000000000000000000000000000000000000000000600052604160045260246000fd5b610ab082610a67565b810181811067ffffffffffffffff82111715610acf57610ace610a78565b5b80604052505050565b6000610ae2610a22565b9050610aee8282610aa7565b919050565b600067ffffffffffffffff821115610b0e57610b0d610a78565b5b602082029050602081019050919050565b600080fd5b6000610b37610b3284610af3565b610ad8565b90508083825260208201905060208402830185811115610b5a57610b59610b1f565b5b835b81811015610b835780610b6f8882610a4d565b845260208401935050602081019050610b5c565b5050509392505050565b600082601f830112610ba257610ba1610a62565b5b8135610bb2848260208601610b24565b91505092915050565b60008060408385031215610bd257610bd1610a2c565b5b6000610be085828601610a4d565b925050602083013567ffffffffffffffff811115610c0157610c00610a31565b5b610c0d85828601610b8d565b9150509250929050565b600080fd5b60008083601f840112610c3257610c31610a62565b5b8235905067ffffffffffffffff811115610c4f57610c4e610c17565b5b602083019150836001820283011115610c6b57610c6a610b1f565b5b9250929050565b60008060208385031215610c8957610c88610a2c565b5b600083013567ffffffffffffffff811115610ca757610ca6610a31565b5b610cb385828601610c1c565b92509250509250929050565b600080fd5b600067ffffffffffffffff821115610cdf57610cde610a78565b5b610ce882610a67565b9050602081019050919050565b82818337600083830152505050565b6000610d17610d1284610cc4565b610ad8565b905082815260208101848484011115610d3357610d32610cbf565b5b610d3e848285610cf5565b509392505050565b600082601f830112610d5b57610d5a610a62565b5b8135610d6b848260208601610d04565b91505092915050565b600060208284031215610d8a57610d89610a2c565b5b600082013567ffffffffffffffff811115610da857610da7610a31565b5b610db484828501610d46565b91505092915050565b60008115159050919050565b610dd281610dbd565b82525050565b600081519050919050565b600082825260208201905092915050565b60005b83811015610e12578082015181840152602081019050610df7565b83811115610e21576000848401525b50505050565b6000610e3282610dd8565b610e3c8185610de3565b9350610e4c818560208601610df4565b610e5581610a67565b840191505092915050565b6000604082019050610e756000830185610dc9565b8181036020830152610e878184610e27565b90509392505050565b600073ffffffffffffffffffffffffffffffffffffffff82169050919050565b6000610ebb82610e90565b9050919050565b610ecb81610eb0565b82525050565b6000602082019050610ee66000830184610ec2565b92915050565b600060208284031215610f0257610f01610a2c565b5b6000610f1084828501610a4d565b91505092915050565b6000604082019050610f2e6000830185610ec2565b610f3b6020830184610ec2565b9392505050565b7f4e487b7100000000000000000000000000000000000000000000000000000000600052602160045260246000fd5b6000606082019050610f8660008301866109f8565b610f9360208301856109f8565b610fa060408301846109f8565b949350505050565b6000819050919050565b610fbb81610fa8565b82525050565b600067ffffffffffffffff82169050919050565b610fde81610fc1565b82525050565b600061ffff82169050919050565b610ffb81610fe4565b82525050565b600063ffffffff82169050919050565b61101a81611001565b82525050565b6000819050919050565b600061104561104061103b84610fe4565b611020565b611001565b9050919050565b6110558161102a565b82525050565b600060a0820190506110706000830188610fb2565b61107d6020830187610fd5565b61108a6040830186610ff2565b6110976060830185611011565b6110a4608083018461104c565b9695505050505050565b6000815190506110bd81610a36565b92915050565b6000602082840312156110d9576110d8610a2c565b5b60006110e7848285016110ae565b91505092915050565b7f4e487b7100000000000000000000000000000000000000000000000000000000600052601160045260246000fd5b600061112a826109ee565b9150611135836109ee565b925082821015611148576111476110f0565b5b828203905092915050565b7f4e487b7100000000000000000000000000000000000000000000000000000000600052603260045260246000fd5b7f4e487b7100000000000000000000000000000000000000000000000000000000600052601260045260246000fd5b60006111bc826109ee565b91506111c7836109ee565b9250826111d7576111d6611182565b5b828206905092915050565b600081905092915050565b50565b60006111fd6000836111e2565b9150611208826111ed565b600082019050919050565b600061121e826111f0565b915081905091905056fea264697066735822122049e30a2d373fa0e33058f531cdfd635c46867426c466064c8771af518b96803e64736f6c63430008090033",
  "linkReferences": {},
  "deployedLinkReferences": {}
}